:060000000A128A110F290B
:10000800F000030EF1000B1912200C181A200B181F
:100018002920710E8300F00E700E0900031383125D
:10002800FC3081000B11AE216E2508000B308F00CB
:10003800CD308E000C104D252D1C2328D3213918C6
:100048000800B9180800D8230800061E552D2A18DC
:100058003528AA18322814220B10080039240B104E
:080068000800C1220B10080082
:100200008A010A140F3982073F3406345B344F34B5
:1002100066346D347D3407347F346F347734442151
:100220002221292136219321A22103138312102593
:100230002A182029AA181E29072217292C24172931
:1002400003231729031383160F140F178F120F128E
:100250000800031383168112811101158114011006
:1002600003138312FC3081000B1108000313831267
:100270001013901610129011901010140B308F0064
:10028000CD308E000C1008000317831688018901F9
:100290000313831687018801850106148614061549
:1002A0008615061681131514951415159515151632
:1002B00003138312860185018701880108178817B7
:1002C000A901A101A201A301A401A501AC012C1067
:1002D000AC10AD012D103C30A0000C30AE00AF01D1
:1002E000B001B101B201B301B501B401B601B7016A
:1002F000B8013810B810B9013910B914BA01BB01EE
:100300000130BA00BB00B000B200BC013C10BC140C
:10031000BE013C30BE00AA012A10AA100514BF017C
:10032000FA30BF000800031383160C148C14031357
:1003300083120B178B178B160B110C108C108B154F
:100340000B10080003138316161496141615961531
:1003500016160313831206080B10080008108810E5
:10036000081188112918D029CD29250887000814DB
:100370002914A91008002608870088142910A91438
:1003800008002708870008152914A9140800280860
:10039000870088152910A9100800A918C129B529B6
:1003A000A918C729BB29A00B08003C30A000A10A4E
:1003B00021080A3C03138312031D0800A101A20AAD
:1003C0002208063C03138312031D08002418F42995
:1003D000A418EB29F429A201A30A2308043C03135F
:1003E0008312031D0800FD29A201A30A23080A3C69
:1003F00003138312031D0800FD29A301A40A240886
:10040000033C03138312031D0800A4010800210804
:100410000021A50022080021A60023080021A70032
:1004200024080021A8000800061C3D2A861D1D2A5C
:10043000061D252A861C7A2A08002D1C232A2D1029
:100440002C14AC1408002D1408002D1808002C18CA
:100450002A2A2D2AAC18302A332AAC18362A392AEF
:100460002C10AC1408002C10AC1008002C14AC108C
:100470000800A3012C14AC1408002D1808002C1837
:10048000422A452AAC18712A502AAC185A2A482AFE
:10049000A10A21080A3C031383120319A1010800D1
:1004A00003138312A20A2208063C031383120319C2
:1004B000A20108002418682AA4185F2A682AA30A3F
:1004C0002308043C03138312031D0800A301080042
:1004D000A30A23080A3C03138312031D0800A30187
:1004E0000800A40A2408033C03138312031D080018
:1004F000A40108002D1808002C187F2A822AAC18A5
:10050000B62A902AAC189B2A852A2108003C03139E
:100510008312031D8E2A0930A1000800A1030800E0
:100520002208003C03138312031D992A0530A20000
:100530000800A20308002418AB2AA418A02AAB2A9A
:100540002308003C03138312031DA92A0330A300D0
:100550000800A30308002308003C03138312031DB3
:10056000B42A0930A3000800A30308002408003CB3
:1005700003138312031DBF2A0330A4000800A40341
:100580000800061C102B061DCA2A861C422B861D3D
:10059000000008003C18CF2ABC18D82AD22A3C10E8
:1005A000BC1408003C14BC100130B000B1010800BC
:1005B0003C10BC100800B001B101AF013B08AF0016
:1005C0000A30AF02B10A0318E02AB1030A30AF07BC
:1005D0000130AF02B00A0318E82AB0030800B201E4
:1005E000B301AE013A08AE000A30AE02B30A0318F6
:1005F000F42AB3030A30AE070130AE02B20A031880
:10060000FC2AB203080032080021A50033080021AB
:10061000A60030080021A70031080021A80008002A
:100620003C181F2BBC1808008517BA0A3A080D3C65
:1006300003138312031DEF2ABA01BA0AEF2A7723A4
:100640003D182E2BBD18382BBB0A3B08203C03134A
:100650008312031DDB2ABB01BB0ADB2ABB0A3B0852
:100660001F3C03138312031DDB2ABB01BB0ADB2AD9
:10067000BB0A3B081D3C03138312031DDB2ABB018D
:10068000BB0ADB2A3C18512BBC1808003A08013C75
:1006900003138312031D4F2B0C30BA00EF2ABA0349
:1006A000EF2A77233D18612BBD186C2B3B08013CCA
:1006B00003138312031D5F2B1F30BB00DB2ABB0318
:1006C000DB2A3B08013C03138312031D6A2B1E30F7
:1006D000BB00DB2ABB03DB2A3B08013C031383126C
:1006E000031D752B1C30BB00DB2ABB03DB2A3A0839
:1006F000013C03138312031D7F2B3D10BD103A08EC
:10070000023C03138312031D872B3D10BD143A08CE
:10071000033C03138312031D8F2B3D10BD103A08B9
:10072000043C03138312031D972B3D14BD103A089C
:10073000053C03138312031D9F2B3D10BD103A0887
:10074000063C03138312031DA72B3D14BD103A086A
:10075000073C03138312031DAF2B3D10BD103A0855
:10076000083C03138312031DB72B3D10BD103A083C
:10077000093C03138312031DBF2B3D14BD103A081F
:100780000A3C03138312031DC72B3D10BD103A080A
:100790000B3C03138312031DCF2B3D14BD103A08ED
:1007A0000C3C03138312031DD72B3D10BD10080012
:1007B0003408003C031383120319E02BB403080030
:1007C0003508003C031383120319E72BF52B360879
:1007D000003C031383120319EE2B0D2C3708003C49
:1007E00003138312031908001F2C0930B4003508C5
:1007F000003C031383120319FF2BB50308003608CE
:10080000003C031383120319062C0D2C3708003CFF
:1008100003138312031908001F2C0930B40005309C
:10082000B5003608003C031383120319192CB603D4
:1008300008003708003C031383120319080009302D
:10084000B4000530B5000930B6003708003C03138A
:100850008312031DB703080034080021A5003508E2
:100860000021A60036080021A70037080021A800B3
:100870000800061C6D2C861D4224061D542C861C67
:10088000BA2C08003918472CB9184B2C4F2C3910AA
:10089000B9140512080032253810B81008003910B4
:1008A000B9143814B814080039180800B91C080025
:1008B00038185B2C5E2CB818612C642CB818672C87
:1008C0006A2C3810B81408003810B8100800381412
:1008D000B81008003814B814080039180800B91CFA
:1008E00008003818742C772CB818B12C9E2CB81826
:1008F000A82C7A2C3508003C03138312031D8C2C82
:100900003608003C03138312031D8C2C3708003C6F
:10091000031383120319942CB40A34080A3C0313FA
:1009200083120319B4010800B40A34080A3C031303
:100930008312031D0800B401B40A080003138312D4
:10094000B50A3508063C031383120319B5010800E4
:10095000B60A36080A3C03138312031D0800B601C9
:100960000800B70A37080A3C03138312031D080066
:10097000B701080039180800B91C08003818C12C44
:10098000C42CB818052DEF2CB818FA2CC72C350834
:10099000003C03138312031DD92C3608003C0313BB
:1009A0008312031DD92C3708003C0313831203194B
:1009B000E42C3408003C03138312031DE22C09309D
:1009C000B4000800B40308003408013C0313831288
:1009D000031DED2C0930B4000800B40308003508ED
:1009E000003C03138312031DF82C0530B5000800EA
:1009F000B50308003608003C03138312031D032DC2
:100A00000930B6000800B60308003708003C03139D
:100A10008312031D0E2D0930B7000800B70308002C
:100A200039180800B91808003408003C0313831271
:100A3000031D08003508003C03138312031D080042
:100A40003608003C03138312031D08003708003CDE
:100A500003138312031D080005163914B9103C3026
:100A6000BE0008003408003C03138312031D4A2D06
:100A70003508003C03138312031D4A2D3608003C41
:100A800003138312031D4A2D3708003C03138312FE
:100A9000031908003910B9100800051E0800BE0B24
:100AA00008003910B914051208002A18602DAA1878
:100AB000672D2A14AA100510851405110B100800C3
:100AC0002A10AA140515051085100B1008002A100D
:100AD000AA100514851005110B100800BF0B0800A3
:100AE000FA30BF00081B772D081788170800081375
:040AF000881308005F
:04400E00D420FF3F7C
:00000001FF
